{
  "contractName": "TodoContract",
  "abi": [
    {
      "inputs": [],
      "stateMutability": "nonpayable",
      "type": "constructor"
    },
    {
      "anonymous": false,
      "inputs": [
        {
          "indexed": false,
          "internalType": "string",
          "name": "id",
          "type": "string"
        },
        {
          "indexed": false,
          "internalType": "enum TodoContract.Status",
          "name": "status",
          "type": "uint8"
        }
      ],
      "name": "TodoCreated",
      "type": "event"
    },
    {
      "anonymous": false,
      "inputs": [
        {
          "indexed": false,
          "internalType": "string",
          "name": "id",
          "type": "string"
        },
        {
          "indexed": false,
          "internalType": "enum TodoContract.Status",
          "name": "newStatus",
          "type": "uint8"
        }
      ],
      "name": "TodoUpdated",
      "type": "event"
    },
    {
      "inputs": [],
      "name": "owner",
      "outputs": [
        {
          "internalType": "address",
          "name": "",
          "type": "address"
        }
      ],
      "stateMutability": "view",
      "type": "function",
      "constant": true
    },
    {
      "inputs": [
        {
          "internalType": "string",
          "name": "_id",
          "type": "string"
        }
      ],
      "name": "createTodo",
      "outputs": [],
      "stateMutability": "nonpayable",
      "type": "function"
    },
    {
      "inputs": [
        {
          "internalType": "string",
          "name": "_id",
          "type": "string"
        },
        {
          "internalType": "uint8",
          "name": "_newStatus",
          "type": "uint8"
        }
      ],
      "name": "updateTodoStatus",
      "outputs": [],
      "stateMutability": "nonpayable",
      "type": "function"
    },
    {
      "inputs": [
        {
          "internalType": "string",
          "name": "_id",
          "type": "string"
        }
      ],
      "name": "getStatus",
      "outputs": [
        {
          "internalType": "enum TodoContract.Status",
          "name": "",
          "type": "uint8"
        }
      ],
      "stateMutability": "view",
      "type": "function",
      "constant": true
    }
  ],
  "bytecode": "0x608060405234801561001057600080fd5b50336000806101000a81548173ffffffffffffffffffffffffffffffffffffffff021916908373ffffffffffffffffffffffffffffffffffffffff160217905550610b90806100606000396000f3fe608060405234801561001057600080fd5b506004361061004c5760003560e01c806322b05ed2146100515780632da46f69146100815780638da5cb5b1461009d578063e34f1221146100bb575b600080fd5b61006b60048036038101906100669190610652565b6100d7565b60405161007891906108c7565b60405180910390f35b61009b60048036038101906100969190610693565b610177565b005b6100a56103d6565b6040516100b291906108ac565b60405180910390f35b6100d560048036038101906100d09190610652565b6103fa565b005b60006002826040516100e99190610895565b908152602001604051809103902060009054906101000a900460ff16610144576040517f08c379a000000000000000000000000000000000000000000000000000000000815260040161013b90610952565b60405180910390fd5b6001826040516101549190610895565b908152602001604051809103902060009054906101000a900460ff169050919050565b60008054906101000a900473ffffffffffffffffffffffffffffffffffffffff1673ffffffffffffffffffffffffffffffffffffffff163373ffffffffffffffffffffffffffffffffffffffff1614610205576040517f08c379a00000000000000000000000000000000000000000000000000000000081526004016101fc90610912565b60405180910390fd5b6002826040516102159190610895565b908152602001604051809103902060009054906101000a900460ff16610270576040517f08c379a000000000000000000000000000000000000000000000000000000000815260040161026790610952565b60405180910390fd5b60028160ff1611156102b7576040517f08c379a00000000000000000000000000000000000000000000000000000000081526004016102ae90610932565b60405180910390fd5b8060ff1660028111156102f3577f4e487b7100000000000000000000000000000000000000000000000000000000600052602160045260246000fd5b6001836040516103039190610895565b908152602001604051809103902060006101000a81548160ff02191690836002811115610359577f4e487b7100000000000000000000000000000000000000000000000000000000600052602160045260246000fd5b02179055507f3ff5b2dbb379a3765de2a11e90d91cfaf54b178f2d29590471f1fb57642fd165828260ff1660028111156103bc577f4e487b7100000000000000000000000000000000000000000000000000000000600052602160045260246000fd5b6040516103ca9291906108e2565b60405180910390a15050565b60008054906101000a900473ffffffffffffffffffffffffffffffffffffffff1681565b60008054906101000a900473ffffffffffffffffffffffffffffffffffffffff1673ffffffffffffffffffffffffffffffffffffffff163373ffffffffffffffffffffffffffffffffffffffff1614610488576040517f08c379a000000000000000000000000000000000000000000000000000000000815260040161047f90610912565b60405180910390fd5b6002816040516104989190610895565b908152602001604051809103902060009054906101000a900460ff16156104f4576040517f08c379a00000000000000000000000000000000000000000000000000000000081526004016104eb90610972565b60405180910390fd5b60006001826040516105069190610895565b908152602001604051809103902060006101000a81548160ff0219169083600281111561055c577f4e487b7100000000000000000000000000000000000000000000000000000000600052602160045260246000fd5b021790555060016002826040516105739190610895565b908152602001604051809103902060006101000a81548160ff0219169083151502179055507fb24501745f85fff88cc582df1223bf671a1234ab872711ffaa7eb8bd56fe311e8160006040516105ca9291906108e2565b60405180910390a150565b60006105e86105e3846109c3565b610992565b90508281526020810184848401111561060057600080fd5b61060b848285610a7e565b509392505050565b600082601f83011261062457600080fd5b81356106348482602086016105d5565b91505092915050565b60008135905061064c81610b43565b92915050565b60006020828403121561066457600080fd5b600082013567ffffffffffffffff81111561067e57600080fd5b61068a84828501610613565b91505092915050565b600080604083850312156106a657600080fd5b600083013567ffffffffffffffff8111156106c057600080fd5b6106cc85828601610613565b92505060206106dd8582860161063d565b9150509250929050565b6106f081610a1a565b82525050565b6106ff81610a6c565b82525050565b6000610710826109f3565b61071a81856109fe565b935061072a818560208601610a8d565b61073381610b1e565b840191505092915050565b6000610749826109f3565b6107538185610a0f565b9350610763818560208601610a8d565b80840191505092915050565b600061077c6025836109fe565b91507f4f6e6c7920746865206f776e65722063616e2063616c6c20746869732066756e60008301527f6374696f6e0000000000000000000000000000000000000000000000000000006020830152604082019050919050565b60006107e2600e836109fe565b91507f496e76616c6964207374617475730000000000000000000000000000000000006000830152602082019050919050565b60006108226013836109fe565b91507f546f646f20646f6573206e6f74206578697374000000000000000000000000006000830152602082019050919050565b60006108626013836109fe565b91507f546f646f20616c726561647920657869737473000000000000000000000000006000830152602082019050919050565b60006108a1828461073e565b915081905092915050565b60006020820190506108c160008301846106e7565b92915050565b60006020820190506108dc60008301846106f6565b92915050565b600060408201905081810360008301526108fc8185610705565b905061090b60208301846106f6565b9392505050565b6000602082019050818103600083015261092b8161076f565b9050919050565b6000602082019050818103600083015261094b816107d5565b9050919050565b6000602082019050818103600083015261096b81610815565b9050919050565b6000602082019050818103600083015261098b81610855565b9050919050565b6000604051905081810181811067ffffffffffffffff821117156109b9576109b8610aef565b5b8060405250919050565b600067ffffffffffffffff8211156109de576109dd610aef565b5b601f19601f8301169050602081019050919050565b600081519050919050565b600082825260208201905092915050565b600081905092915050565b6000610a2582610a3f565b9050919050565b6000819050610a3a82610b2f565b919050565b600073ffffffffffffffffffffffffffffffffffffffff82169050919050565b600060ff82169050919050565b6000610a7782610a2c565b9050919050565b82818337600083830152505050565b60005b83811015610aab578082015181840152602081019050610a90565b83811115610aba576000848401525b50505050565b7f4e487b7100000000000000000000000000000000000000000000000000000000600052602160045260246000fd5b7f4e487b7100000000000000000000000000000000000000000000000000000000600052604160045260246000fd5b6000601f19601f8301169050919050565b60038110610b4057610b3f610ac0565b5b50565b610b4c81610a5f565b8114610b5757600080fd5b5056fea2646970667358221220dc9f680ee9769f6ab664e74046866291838ee3b5cd3183163333a99367855de864736f6c63430008000033",
  "immutableReferences": {},
  "source": "// SPDX-License-Identifier: GPL-3.0\r\npragma solidity ^0.8.0;\r\n\r\ncontract TodoContract {\r\n    address public owner; // Address of the contract owner\r\n\r\n    enum Status {\r\n        Pending,\r\n        InProgress,\r\n        Completed\r\n    }\r\n\r\n    mapping(string => Status) private todos; // Mapping to store todo statuses\r\n    mapping(string => bool) private todoExists; // Mapping to check existence of a todo\r\n\r\n    event TodoCreated(string id, Status status); // Event for todo creation\r\n    event TodoUpdated(string id, Status newStatus); // Event for status updates\r\n\r\n    constructor() {\r\n        owner = msg.sender; // Set the owner as the deployer of the contract\r\n    }\r\n\r\n    modifier onlyOwner() {\r\n      require(msg.sender == owner, 'Only the owner can call this function');\r\n        _;\r\n    }\r\n\r\n    /**\r\n     * @dev Creates a new todo item.\r\n     * @param _id The unique identifier for the todo.\r\n     */\r\n    function createTodo(string memory _id) external onlyOwner {\r\n        require(!todoExists[_id], 'Todo already exists');\r\n        todos[_id] = Status.Pending;\r\n        todoExists[_id] = true;\r\n        emit TodoCreated(_id, Status.Pending);\r\n    }\r\n\r\n    /**\r\n     * @dev Updates the status of an existing todo item.\r\n     * @param _id The unique identifier for the todo.\r\n     * @param _newStatus The new status to set for the todo.\r\n     */\r\n    function updateTodoStatus(\r\n        string memory _id,\r\n        uint8 _newStatus\r\n    ) external onlyOwner {\r\n        require(todoExists[_id], 'Todo does not exist');\r\n        require(_newStatus <= 2, 'Invalid status');\r\n    \r\n        todos[_id] = Status(_newStatus);\r\n        emit TodoUpdated(_id, Status(_newStatus));\r\n    }\r\n\r\n    /**\r\n     * @dev Gets the status of a todo item.\r\n     * @param _id The unique identifier for the todo.\r\n     * @return The current status of the todo.\r\n     */\r\n    function getStatus(string memory _id) external view returns (Status) {\r\n        require(todoExists[_id], 'Todo does not exist');\r\n        return todos[_id];\r\n    }\r\n}\r\n",
  "sourcePath": "D:\\MERN\\dAppToDo\\backend\\src\\blockchain\\contracts\\todoContract.sol",
  "compiler": {
    "name": "solc",
    "version": "0.8.0+commit.c7dfd78e.Emscripten.clang"
  },
  "schemaVersion": "3.4.16",
  "updatedAt": "2025-01-18T15:25:54.056Z",
  "networkType": "ethereum",
  "devdoc": {
    "kind": "dev",
    "methods": {
      "createTodo(string)": {
        "details": "Creates a new todo item.",
        "params": {
          "_id": "The unique identifier for the todo."
        }
      },
      "getStatus(string)": {
        "details": "Gets the status of a todo item.",
        "params": {
          "_id": "The unique identifier for the todo."
        },
        "returns": {
          "_0": "The current status of the todo."
        }
      },
      "updateTodoStatus(string,uint8)": {
        "details": "Updates the status of an existing todo item.",
        "params": {
          "_id": "The unique identifier for the todo.",
          "_newStatus": "The new status to set for the todo."
        }
      }
    },
    "version": 1
  },
  "userdoc": {
    "kind": "user",
    "methods": {},
    "version": 1
  }
}